:020000040800F2
:1000000000000220791D0008051B00080D1B0008D8
:10001000151B00081D1B0008251B00080000000020
:100020000000000000000000000000002D1B000880
:100030003B1B000800000000491B0008571B00087C
:10004000C91D0008C91D0008C91D0008C91D0008F8
:10005000C91D0008C91D0008C91D0008C91D0008E8
:10006000C91D0008C91D0008C91D0008651B00083E
:10007000C91D0008C91D0008C91D0008791B00081A
:10008000C91D0008C91D0008C91D000800000000A6
:10009000000000000000000000000000C91D000872
:1000A000C91D0008C91D0008C91D0008C91D000898
:1000B000C91D0008C91D0008C91D0008C91D000888
:1000C000C91D0008C91D0008C91D0008C91D000878
:1000D0008D1B0008C91D0008C91D00080000000094
:1000E000C91D0008C91D0008C91D00080000000046
:1000F000000000000000000000000000C91D000812
:1001000000000000C91D0008C91D0008A11B00084F
:1001100000000000000000000000000000000000DF
:10012000C91D0008C91D0008C91D0008C91D000817
:10013000C91D0008000000000000000000000000D1
:10014000000000000000000000000000C91D0008C1
:10015000C91D0008C91D0008B51B0008C91D0008FD
:10016000C91D0008C91D00080000000000000000B3
:10017000000000000000000000000000000000007F
:1001800000000000C91D0008000000000000000081
:08019000C91D0008C91D00088B
:1001A00010B5054C237833B9044B13B10448AFF3B1
:1001B00000800123237010BDD80100200000000042
:1001C0007C9A000808B5034B1BB103490348AFF301
:1001D000008008BD00000000DC0100207C9A0008BF
:1001E00001F0FF01102A2BDB10F0070F08D010F8E8
:1001F000013B013A8B422DD010F0070F42B3F6D1EC
:10020000F0B441EA012141EA014122F007047FF004
:1002100000070023F0E80256083C85EA010586EA5B
:10022000010685FA47F5A3FA87F586FA47F6A5FA97
:1002300087F68EB9EED1F0BC01F0FF0102F00702A3
:1002400032B110F8013B013A83EA010313B1F8D14E
:100250000020704701387047002D06BF354603382F
:10026000073815F0010F07D1013015F4807F02BF68
:10027000013015F4C03F0130F0BC0138704700BFB9
:10028000034613F8012B002AFBD1181A01387047D6
:1002900081F0004102E000BF83F0004330B54FEA37
:1002A00041044FEA430594EA050F08BF90EA020FA4
:1002B0001FBF54EA000C55EA020C7FEA645C7FEA37
:1002C000655C00F0E2804FEA5454D4EB5555B8BF5A
:1002D0006D420CDD2C4480EA020281EA030382EACB
:1002E000000083EA010180EA020281EA0303362D5D
:1002F00088BF30BD11F0004F4FEA01314FF4801C30
:100300004CEA113102D0404261EB410113F0004F41
:100310004FEA03334CEA133302D0524263EB4303F8
:1003200094EA050F00F0A780A4F10104D5F1200E96
:100330000DDB02FA0EFC22FA05F2801841F10001F1
:1003400003FA0EF2801843FA05F359410EE0A5F1C5
:1003500020050EF1200E012A03FA0EFC28BF4CF0F6
:10036000020C43FA05F3C01851EBE37101F00045AC
:1003700007D54FF0000EDCF1000C7EEB00006EEBB9
:100380000101B1F5801F1BD3B1F5001F0CD3490843
:100390005FEA30004FEA3C0C04F101044FEA44529A
:1003A00012F5800F80F09A80BCF1004F08BF5FEA21
:1003B000500C50F1000041EB045141EA050130BD01
:1003C0005FEA4C0C404141EB0101013C28BFB1F513
:1003D000801FE9D291F0000F04BF01460020B1FA5E
:1003E00081F308BF2033A3F10B03B3F120020CDA31
:1003F0000C3208DD02F1140CC2F10C0201FA0CF00F
:1004000021FA02F10CE002F11402D8BFC2F1200C73
:1004100001FA02F120FA0CFCDCBF41EA0C01904029
:10042000E41AA2BF01EB0451294330BD6FEA040472
:100430001F3C1CDA0C340EDC04F11404C4F120025D
:1004400020FA04F001FA02F340EA030021FA04F36F
:1004500045EA030130BDC4F10C04C4F1200220FAC6
:1004600002F001FA04F340EA0300294630BD21FA04
:1004700004F0294630BD94F0000F83F4801306BFCA
:1004800081F480110134013D4EE77FEA645C18BFBE
:100490007FEA655C29D094EA050F08BF90EA020F55
:1004A00005D054EA000C04BF1946104630BD91EA4D
:1004B000030F1EBF0021002030BD5FEA545C05D150
:1004C0004000494128BF41F0004130BD14F580048F
:1004D0003CBF01F5801130BD01F0004545F0FE4103
:1004E00041F470014FF0000030BD7FEA645C1ABF38
:1004F000194610467FEA655C1CBF0B46024650EA6F
:10050000013406BF52EA033591EA030F41F400219A
:1005100030BD00BF90F0000F04BF0021704730B520
:100520004FF4806404F132044FF000054FF00001F5
:1005300050E700BF90F0000F04BF0021704730B5B6
:100540004FF4806404F1320410F0004548BF40428B
:100550004FF000013EE700BF42004FEAE2014FEAE0
:1005600031014FEA02701FBF12F07F4393F07F4FBB
:1005700081F06051704732F07F4208BF704793F0BE
:100580007F4F04BF41F40021704730B54FF46074D1
:1005900001F0004521F000411CE700BF50EA0102D4
:1005A00008BF704730B54FF000050AE050EA01027D
:1005B00008BF704730B511F0004502D5404261EBED
:1005C00041014FF4806404F132045FEA915C3FF42E
:1005D000D8AE4FF003025FEADC0C18BF03325FEACB
:1005E000DC0C18BF033202EBDC02C2F1200300FA7C
:1005F00003FC20FA02F001FA03FE40EA0E0021FAA1
:1006000002F11444BDE600BF70B54FF0FF0C4CF48E
:10061000E06C1CEA11541DBF1CEA135594EA0C0F40
:1006200095EA0C0F00F0DEF82C4481EA030621EA7B
:100630004C5123EA4C5350EA013518BF52EA0335B6
:1006400041F4801143F4801338D0A0FB02CE4FF068
:100650000005E1FB02E506F00042E0FB03E54FF098
:100660000006E1FB03569CF0000F18BF4EF0010E90
:10067000A4F1FF04B6F5007F64F5407404D25FEA8C
:100680004E0E6D4146EB060642EAC62141EA55513F
:100690004FEAC52040EA5E504FEACE2EB4F1FD0C81
:1006A00088BFBCF5E06F1ED8BEF1004F08BF5FEAFF
:1006B000500E50F1000041EB045170BD06F00046B1
:1006C00046EA010140EA020081EA0301B4EB5C045E
:1006D000C2BFD4EB0C0541EA045170BD41F4801156
:1006E0004FF0000E013C00F3AB8014F1360FDEBF7B
:1006F000002001F0004170BDC4F10004203C35DA57
:100700000C341BDC04F11404C4F1200500FA05F3D9
:1007100020FA04F001FA05F240EA020001F000427A
:1007200021F0004110EBD37021FA04F642EB0601F0
:100730005EEA430E08BF20EAD37070BDC4F10C041A
:10074000C4F1200500FA04F320FA05F001FA04F2DE
:1007500040EA020001F0004110EBD37041F10001CA
:100760005EEA430E08BF20EAD37070BDC4F12005D5
:1007700000FA05F24EEA020E20FA04F301FA05F23D
:1007800043EA020321FA04F001F0004121FA04F2E5
:1007900020EA020000EBD3705EEA430E08BF20EAB5
:1007A000D37070BD94F0000F0FD101F000464000EF
:1007B00041EB010111F4801F08BF013CF7D041EA71
:1007C000060195F0000F18BF704703F00046520075
:1007D00043EB030313F4801F08BF013DF7D043EA46
:1007E0000603704794EA0C0F0CEA135518BF95EAFC
:1007F0000C0F0CD050EA410618BF52EA4306D1D183
:1008000081EA030101F000414FF0000070BD50EAA1
:10081000410606BF1046194652EA430619D094EA2B
:100820000C0F02D150EA013613D195EA0C0F05D115
:1008300052EA03361CBF104619460AD181EA030169
:1008400001F0004141F0FE4141F470014FF0000021
:1008500070BD41F0FE4141F4780170BD70B54FF0BC
:10086000FF0C4CF4E06C1CEA11541DBF1CEA13553C
:1008700094EA0C0F95EA0C0F00F0A7F8A4EB05041E
:1008800081EA030E52EA03354FEA013100F0888015
:100890004FEA03334FF0805545EA131343EA1263DE
:1008A0004FEA022245EA111545EA10654FEA002693
:1008B0000EF000419D4208BF964244F1FD0404F54C
:1008C000407402D25B084FEA3202B61A65EB0305A8
:1008D0005B084FEA32024FF480104FF4002CB6EB65
:1008E000020E75EB030E22BFB61A754640EA0C00E5
:1008F0005B084FEA3202B6EB020E75EB030E22BF25
:10090000B61A754640EA5C005B084FEA3202B6EB65
:10091000020E75EB030E22BFB61A754640EA9C0024
:100920005B084FEA3202B6EB020E75EB030E22BFF4
:10093000B61A754640EADC0055EA060E18D04FEAB2
:10094000051545EA16754FEA06164FEAC30343EA52
:1009500052734FEAC2025FEA1C1CC0D111F4801F1F
:100960000BD141EA00014FF000004FF0004CB6E718
:1009700011F4801F04BF01430020B4F1FD0C88BFB7
:10098000BCF5E06F3FF6AFAEB5EB030C04BFB6EBC2
:10099000020C5FEA500C50F1000041EB045170BDB5
:1009A0000EF0004E4EEA113114EB5C04C2BFD4EBE2
:1009B0000C0541EA045170BD41F480114FF0000E66
:1009C000013C90E645EA060E8DE60CEA135594EAE2
:1009D0000C0F08BF95EA0C0F3FF43BAF94EA0C0FE5
:1009E0000AD150EA01347FF434AF95EA0C0F7FF45A
:1009F00025AF104619462CE795EA0C0F06D152EAAE
:100A000003353FF4FDAE1046194622E750EA410691
:100A100018BF52EA43067FF4C5AE50EA41047FF4A2
:100A20000DAF52EA43057FF4EBAE12E74FF0FF3C07
:100A300006E000BF4FF0010C02E000BF4FF0010CD8
:100A40004DF804CD4FEA410C7FEA6C5C4FEA430C51
:100A500018BF7FEA6C5C1BD001B050EA410C0CBFA0
:100A600052EA430C91EA030F02BF90EA020F002002
:100A7000704710F1000F91EA030F58BF994208BF69
:100A800090422CBFD8176FEAE37040F00100704726
:100A90004FEA410C7FEA6C5C02D150EA013C07D17D
:100AA0004FEA430C7FEA6C5CD6D152EA033CD3D0C8
:100AB0005DF8040B704700BF8446104662468C46C2
:100AC0001946634600E000BF01B5FFF7B7FF0028F5
:100AD00048BF10F1000F01BD4DF808EDFFF7F4FF1E
:100AE0000CBF012000205DF808FB00BF4DF808EDA9
:100AF000FFF7EAFF34BF012000205DF808FB00BFCC
:100B00004DF808EDFFF7E0FF94BF012000205DF8ED
:100B100008FB00BF4DF808EDFFF7CEFF94BF0120A2
:100B200000205DF808FB00BF4DF808EDFFF7C4FF9B
:100B300034BF012000205DF808FB00BF4FEA410CE4
:100B40007FEA6C5C02D150EA013C0AD14FEA430CC7
:100B50007FEA6C5C02D152EA033C02D14FF0000004
:100B600070474FF0010070474FEA410212F5001242
:100B700015D211D56FF47873B3EB625212D94FEAE4
:100B8000C12343F0004343EA505311F0004F23FACE
:100B900002F018BF404270474FF00000704750EA23
:100BA000013005D111F0004008BF6FF000407047E0
:100BB0004FF00000704700BF4A0011D212F500123A
:100BC00011D20DD56FF47873B3EB62520ED44FEAA5
:100BD000C12343F0004343EA505323FA02F0704725
:100BE0004FF00000704750EA013002D14FF0FF3063
:100BF00070474FF0000070474FEA4102B2F1E04306
:100C000024BFB3F5001CDCF1FE5C0DD901F0004CF3
:100C10004FEAC0024CEA5070B2F1004F40EB830043
:100C200008BF20F00100704711F0804F21D113F16F
:100C30003872BCBF01F00040704741F480114FEAA8
:100C40005252C2F11802C2F1200C10FA0CF320FA31
:100C500002F018BF40F001004FEAC1234FEAD3234E
:100C600003FA0CFC40EA0C0023FA02F34FEA4303B8
:100C7000CCE77FEA625307D150EA01331EBF4FF041
:100C8000FE4040F44000704701F0004040F0FE405C
:100C900040F40000704700BF53B94AB9002908BFAB
:100CA00000281CBF4FF0FF314FF0FF3000F0BEB9FD
:100CB000ADF1080C6DE904CE00F03CF8DDF804E07D
:100CC000DDE9022304B0704738B500220023044652
:100CD0000D46FFF70BFF28B920462946BDE83840EE
:100CE00000F00AB8204605F1004100F005F8404246
:100CF00061EB410138BD00BFD0B50C4B0022064668
:100D00000F46FFF781FCFFF757FF0446FFF702FC91
:100D1000074B0022FFF778FC02460B463046394667
:100D2000FFF7BAFAFFF748FF2146D0BD0000F03DBB
:100D30000000F0412DE9F047089D8E4604468846A4
:100D4000002B4AD18A42174662D9B2FA82F64EB1D6
:100D5000C6F1200301FA06F820FA03F3B74043EA8C
:100D60000808B4404FEA174E1FFA87FCB8FBFEF1A3
:100D7000230C0EFB118843EA084301FB0CF29A4254
:100D800009D9FB1801F1FF3080F0EA809A4240F265
:100D9000E78002393B449A1AA3B2B2FBFEF00EFB85
:100DA000102243EA024300FB0CFC9C4509D9FB18C6
:100DB00000F1FF3280F0D6809C4540F2D3803B4466
:100DC000023840EA0140A3EB0C0300211DB1F340BF
:100DD0000022C5E90032BDE8F0878B4205D90DB18C
:100DE000C5E9000100210846F5E7B3FA83F10029BF
:100DF00046D1734502D3824200F20581841A6EEB1C
:100E0000030201209046002DE5D0C5E90048E2E745
:100E1000002A00F09080B2FA82F6002E40F0A48002
:100E20008A1A030C4FEA174E80B2BCB20121B2FB02
:100E3000FEFC0EFB1C2243EA024304FB0CF29A4226
:100E400007D9FB180CF1FF3802D29A4200F2E08079
:100E5000C4469B1AB3FBFEF20EFB123340EA034377
:100E600002FB04F49C4207D9FB1802F1FF3002D2C6
:100E70009C4200F2CA8002461B1B42EA0C40A5E7D6
:100E8000C1F120068B4022FA06F71F430EFA01F447
:100E900020FA06F32EFA06FE4FEA1749234300FA1A
:100EA00001F81FFA87FCBEFBF9F01C0C09FB10EEE1
:100EB00044EA0E4400FB0CFEA64502FA01F209D9F1
:100EC0003C1900F1FF3A80F09C80A64540F29980E1
:100ED00002383C44A4EB0E041FFA83FEB4FBF9F382
:100EE00009FB13444EEA044403FB0CFCA44508D957
:100EF0003C1903F1FF3E80F08280A4457FD9023B7C
:100F00003C4443EA0040A4EB0C04A0FB02EC644523
:100F10007346E14662D35FD05DB1B8EB030264EB88
:100F2000090404FA06F622FA01F31E43CC40C5E98F
:100F3000006400214FE7B1FBF2FC010C41EA0E41D5
:100F400080B240EA01423B4638463C46B846BE467F
:100F50002026B1FBF7F1A2EB080241EA0C4166E75B
:100F6000014618E710462CE7C6F120022EFA02F3DC
:100F7000B740B14020FA02F24FEA174E0A43B3FBE2
:100F8000FEF8BCB20EFB1833110C41EA034108FB1A
:100F900004F9B04089454FEA104380B23ED9791830
:100FA00008F1FF3C01D289451FD8A1EB0901B1FB33
:100FB000FEF909FB04F80EFB191192B242EA014254
:100FC000424529D2BA1809F1FF31C4D24245C2D2F2
:100FD000A9F102013A44BEE7F0459DD2BEEB0203FF
:100FE0006CEB070C0138E14696E7A7EB0909494489
:100FF000A8F1020CB1FBFEF909FB04F8DBE773462C
:101000007FE7504666E70846FDE63B44023A33E791
:10101000ACF1020C3B441CE749469CE7A1EB0901FB
:10102000C446B1FBFEF909FB04F8C4E7704700BFF2
:1010300080B582B000AF0F4800F0A2FF0A210D4832
:1010400001F085F80B4801F00DF97860094801F0CE
:101050004BF87B6807EE903AB8EE677ADFED066AE8
:10106000C7EE267A77EEA77AB0EE670A0837BD4654
:1010700080BD00BF1406002000F07F4580B485B01D
:1010800000AF78600B467B800023FB812AE0FB8960
:101090005B007A681344B3F9003007EE903AB8EE7B
:1010A000E77A164BD3ED007A67EE277AFDEEE77A02
:1010B00017EE903ABB60BB68B3F5004F02DB47F612
:1010C000FF73BB60BB6813F5004F01DA0C4BBB60CC
:1010D000FB895B007A681344BA6812B21A80FB89F4
:1010E0000133FB81FA897B889A42D0D300BF00BFCD
:1010F0001437BD465DF8047B704700BF0000002038
:101100000080FFFF80B582B000AF78604FF480723E
:101110000549064805F057F980210448FFF7AEFF5E
:1011200000BF0837BD4680BDF4010020F403002055
:1011300080B582B000AF7860074B08494FF48072E9
:10114000184605F040F9044B80211846FFF796FF3A
:1011500000BF0837BD4680BDF4040020F402002023
:10116000B0B582B002AF00F031FE00F05FF800F0E1
:10117000C5F800F0F9F900F0B9F900F0DFF800F077
:101180002FF900F05BF900F087F94FF480721E49E7
:101190001E4802F0ABFA4FF480721D491D4802F060
:1011A000FDF9FFF745FFF0EE407A1B4BC3ED007AE7
:1011B0000A2000F07DFE184B1B681846FFF7CCF99B
:1011C00004460D46144BD3ED007A9FED147A67EE7A
:1011D000877A17EE900AFFF7BFF902460B46CDE972
:1011E000002322462B460E490E4805F007F80D480D
:1011F000FFF746F803469AB264230A490A4803F007
:101200001BFD00BFCDE700BFF4010020A4060020B5
:10121000F40300205C0600200000002000F0FF44E2
:10122000989A0008F4050020AC07002080B594B01F
:1012300000AF07F1200330220021184605F043F8E3
:1012400007F10C0300221A605A609A60DA601A6192
:101250000023BB60274B1B6C264A43F0805313646A
:10126000244B1B6C03F08053BB60BB6800237B6086
:10127000214B1B68204A43F4404313601E4B1B68FC
:1012800003F440437B607B6802233B620123FB62E3
:1012900010233B630223BB630023FB6308233B64EF
:1012A00064237B640223BB640423FB6407F12003F3
:1012B000184602F0C7FE0346002B01D000F0FEF9ED
:1012C0000F23FB6002233B6100237B614FF48053BB
:1012D000BB610023FB6107F10C030321184603F0F7
:1012E00029F90346002B01D000F0E8F900BF503780
:1012F000BD4680BD003802400070004080B586B019
:1013000000AF3B4600221A605A609A60DA601A61A8
:101310005A6101233B60C023BB6010237B60022322
:10132000FB603B46184603F0E5FA0346002B01D06C
:1013300000F0C4F900BF1837BD4680BD80B584B049
:1013400000AF3B4600221A605A609A60DA60214B77
:10135000214A1A601F4B4FF480325A601D4B002205
:101360009A601C4B00221A611A4B00221A76194B04
:10137000002283F82020174B0022DA62154B174A0F
:101380009A62144B0022DA60124B0122DA61114B8F
:10139000002283F830200F4B01225A610D4800F0E3
:1013A000ABFD0346002B01D000F088F901233B6020
:1013B00001237B600023BB603B461946054800F0D3
:1013C0005FFF0346002B01D000F078F900BF103713
:1013D000BD4680BD14060020002001400100000F22
:1013E00080B500AF134B144A1A60124B4FF40072D1
:1013F0005A60104B00229A600E4B0122DA600D4BAE
:1014000000221A610B4B4AF644425A61094B0022F2
:101410009A61084B0022DA61064B01221A620548E4
:1014200001F07CFF0346002B01D000F047F900BF1C
:1014300080BD00BF5C0600200038004080B500AFD2
:10144000134B144A1A60124B4FF440725A60104BFF
:1014500000229A600E4B0122DA600D4B00221A61C5
:101460000B4B4AF644425A61094B00229A61084BE1
:101470000022DA61064B01221A62054801F04EFF94
:101480000346002B01D000F019F900BF80BD00BF5A
:10149000A4060020003C004080B500AF114B124A6A
:1014A0001A60104B4FF461325A600E4B00229A6062
:1014B0000C4B0022DA600B4B00221A61094B0C2204
:1014C0005A61084B00229A61064B0022DA610548F6
:1014D00003F062FB0346002B01D000F0EFF800BFE1
:1014E00080BD00BFAC0700200010014080B582B075
:1014F00000AF00237B601B4B1B6B1A4A43F40013A5
:101500001363184B1B6B03F400137B607B68002391
:101510003B60144B1B6B134A43F480031363114B62
:101520001B6B03F480033B603B68002200210B200F
:1015300001F0AFF90B2001F0C8F9002200210F20C3
:1015400001F0A7F90F2001F0C0F900220021462088
:1015500001F09FF9462001F0B8F900BF0837BD46F9
:1015600080BD00BF0038024080B58AB000AF07F1EF
:10157000140300221A605A609A60DA601A6100232C
:101580003B614A4B1B6B494A43F004031363474BCF
:101590001B6B03F004033B613B690023FB60434B7F
:1015A0001B6B424A43F080031363404B1B6B03F0F9
:1015B0008003FB60FB680023BB603C4B1B6B3B4A1A
:1015C00043F001031363394B1B6B03F00103BB6052
:1015D000BB6800237B60354B1B6B344A43F002032E
:1015E0001363324B1B6B03F002037B607B680022AA
:1015F0004FF460412E4801F077FE002204212D486F
:1016000001F072FE012208212A4801F06DFE00223D
:101610004FF40051284801F067FE4FF460437B61AE
:101620000123BB610023FB6100233B6207F114032C
:1016300019461F4801F0D4FC01237B610023BB61E4
:101640000023FB6107F1140319461A4801F0C8FC96
:101650000C237B610123BB610023FB6100233B6200
:1016600007F114031946134801F0BAFC07237B6104
:101670000023BB610123FB6107F1140319460E48E7
:1016800001F0AEFC4FF400537B610123BB610023EA
:10169000FB6100233B6207F114031946064801F081
:1016A0009FFC00BF2837BD4680BD00BF0038024008
:1016B00000080240000002400004024080B400AF75
:1016C00072B600BF00BFFDE780B483B000AF002357
:1016D0007B60104B5B6C0F4A43F4804353640D4BAB
:1016E0005B6C03F480437B607B6800233B60094BA9
:1016F0001B6C084A43F080531364064B1B6C03F0C9
:1017000080533B603B6800BF0C37BD465DF8047BEF
:10171000704700BF0038024080B58AB000AF7860E3
:1017200007F1140300221A605A609A60DA601A61A5
:101730007B681B68174A934227D100233B61164BF5
:101740005B6C154A43F480735364134B5B6C03F476
:1017500080733B613B690023FB600F4B1B6B0E4AA0
:1017600043F0010313630C4B1B6B03F00103FB609D
:10177000FB6802237B610323BB610023FB6107F14C
:1017800014031946054801F02BFC00BF2837BD465D
:1017900080BD00BF00200140003802400000024030
:1017A00080B58CB000AF786007F11C0300221A608E
:1017B0005A609A60DA601A617B681B688B4A9342B0
:1017C00076D10023BB618A4B1B6C894A43F480436A
:1017D0001364874B1B6C03F48043BB61BB6900231C
:1017E0007B61834B1B6B824A43F002031363804B84
:1017F0001B6B03F002037B617B694FF41443FB61B5
:1018000002233B6200237B620023BB620523FB6251
:1018100007F11C031946774801F0E2FB4FF48043BF
:10182000FB6102233B6200237B620023BB62062331
:10183000FB6207F11C0319466E4801F0D1FB6E4BA9
:101840006E4A1A606C4B00225A606B4B40229A60C1
:10185000694B0022DA60684B4FF480621A61664B74
:101860004FF400625A61644B4FF400529A61624B2C
:101870004FF48072DA61604B00221A625E4B0022E4
:101880005A625D4801F03CF80346002B01D0FFF797
:1018900015FF7B68584A9A63574A7B689363002216
:1018A0000021242000F0F5FF242001F00EF898E03C
:1018B0007B681B68524A934240F0938000233B614F
:1018C0004B4B1B6C4A4A43F400431364484B1B6C5C
:1018D00003F400433B613B690023FB60444B1B6BFB
:1018E000434A43F001031363414B1B6B03F00103B5
:1018F000FB60FB680023BB603D4B1B6B3C4A43F025
:10190000020313633A4B1B6B03F00203BB60BB681B
:101910004FF40043FB6102233B6200237B62002300
:10192000BB620623FB6207F11C031946354801F030
:1019300057FB2823FB6102233B6200237B620023C9
:10194000BB620623FB6207F11C031946294801F01C
:1019500047FB1023FB6102233B6200237B620023D1
:10196000BB620723FB6207F11C031946214801F003
:1019700037FB254B254A1A60234B00225A60224B25
:1019800000229A60204B0022DA601F4B4FF48062E5
:101990001A611D4B4FF400625A611B4B4FF4005209
:1019A0009A61194B4FF48072DA61174B00221A6268
:1019B000154B00225A62144800F0A2FF0346002B88
:1019C00001D0FFF77BFE7B680F4ADA630E4A7B6823
:1019D000936300220021332000F05BFF332000F0EE
:1019E00074FF00BF3037BD4680BD00BF00380040E7
:1019F0000038024000040240EC0600207060024003
:101A0000003C0040000002404C07002010600240F3
:101A100080B58AB000AF786007F1140300221A6025
:101A20005A609A60DA601A617B681B68304A934298
:101A30005AD100233B612F4B5B6C2E4A43F01003BD
:101A400053642C4B5B6C03F010033B613B69002338
:101A5000FB60284B1B6B274A43F001031363254BA4
:101A60001B6B03F00103FB60FB684FF4C0637B61F9
:101A70000223BB610023FB6103233B6207237B62DC
:101A800007F1140319461C4801F0AAFA1B4B1C4A23
:101A90001A601A4B4FF000625A60184B40229A604D
:101AA000164B0022DA60154B4FF480621A61134B1B
:101AB00000225A61114B00229A61104B0022DA6118
:101AC0000E4B00221A620D4B00225A620B4800F0A6
:101AD00017FF0346002B01D0FFF7F0FD7B68074A94
:101AE0009A63064A7B68936300BF2837BD4680BD72
:101AF000001001400038024000000240F4070020BE
:101B0000B864024080B400AF00BFFDE780B400AF0E
:101B100000BFFDE780B400AF00BFFDE780B400AFB9
:101B200000BFFDE780B400AF00BFFDE780B400AFA9
:101B300000BFBD465DF8047B704780B400AF00BFB6
:101B4000BD465DF8047B704780B400AF00BFBD4662
:101B50005DF8047B704780B500AF00F089F900BFE5
:101B600080BD000080B500AF024800F0CFFF00BF8D
:101B700080BD00BF4C07002080B500AF024800F0D8
:101B8000C5FF00BF80BD00BFEC06002080B500AFE0
:101B9000024801F067FE00BF80BD00BF5C06002068
:101BA00080B500AF024801F05DFE00BF80BD00BF00
:101BB000A406002080B500AF024800F0A7FF00BFD8
:101BC00080BD00BFF407002080B400AF0123184699
:101BD000BD465DF8047B704780B582B000AF786089
:101BE000396004F0C3FB034616221A604FF0FF333E
:101BF00018460837BD4680BD80B582B000AF78601A
:101C00004FF0FF317868FFF7E7FF00BFFDE780B5D1
:101C100086B000AFF860B9607A6000237B610AE0AB
:101C2000AFF300800146BB685A1CBA60CAB21A7092
:101C30007B6901337B617A697B689A42F0DB7B6860
:101C400018461837BD4680BD80B586B000AFF86035
:101C5000B9607A6000237B6109E0BB685A1CBA60F6
:101C60001B781846AFF300807B6901337B617A698A
:101C70007B689A42F1DB7B6818461837BD4680BD09
:101C800080B483B000AF78604FF0FF3318460C3754
:101C9000BD465DF8047B704780B483B000AF7860C8
:101CA00039603B684FF400525A60002318460C37E5
:101CB000BD465DF8047B704780B483B000AF7860A8
:101CC000012318460C37BD465DF8047B704780B48D
:101CD00085B000AFF860B9607A6000231846143709
:101CE000BD465DF8047B704780B586B000AF786074
:101CF000144A154BD31A7B617B693B61134B1B68FC
:101D0000002B02D1114B124A1A60104B1A687B68E3
:101D100013443A699A4207D204F028FB03460C2286
:101D20001A604FF0FF3309E0084B1B68FB60074B5C
:101D30001A687B681344054A1360FB681846183715
:101D4000BD4680BD000002200004000054080020B1
:101D5000A809002080B400AF064BD3F88830054AAC
:101D600043F47003C2F8883000BFBD465DF8047BC1
:101D7000704700BF00ED00E0DFF834D0FFF7EAFF66
:101D80000C480D490D4A002302E0D458C4500433D6
:101D9000C4188C42F9D30A4A0A4C002301E01360AC
:101DA0000432A242FBD304F0E7FAFFF7D9F97047F7
:101DB0000000022000000020D80100200C9F000835
:101DC000D8010020A8090020FEE7000080B500AF80
:101DD0000E4B1B680D4A43F4007313600B4B1B68DA
:101DE0000A4A43F480631360084B1B68074A43F4B4
:101DF00080731360032000F041FD0F2000F008F80D
:101E0000FFF762FC0023184680BD00BF003C024083
:101E100080B582B000AF7860124B1A68124B1B7805
:101E200019464FF47A73B3FBF1F3B2FBF3F31846A0
:101E300000F059FD0346002B01D001230EE07B6822
:101E40000F2B0AD8002279684FF0FF3000F021FDF7
:101E5000064A7B681360002300E001231846083718
:101E6000BD4680BD040000200C00002008000020BA
:101E700080B400AF064B1B781A46064B1B68134410
:101E8000044A136000BFBD465DF8047B704700BF85
:101E90000C0000205808002080B400AF034B1B68E2
:101EA0001846BD465DF8047B704700BF5808002007
:101EB00080B584B000AF7860FFF7EEFFB8607B6854
:101EC000FB60FB68B3F1FF3F05D00A4B1B781A4655
:101ED000FB681344FB6000BFFFF7DEFF0246BB68F0
:101EE000D31AFA689A42F7D800BF00BF1037BD4630
:101EF00080BD00BF0C00002080B584B000AF7860CA
:101F00000023FB737B68002B01D1012333E07B6846
:101F10001B6C002B09D17868FFF7FEFB7B68002261
:101F20005A647B68002283F83C207B681B6C03F0BA
:101F30001003002B18D17B681B6C23F4885323F00B
:101F4000020343F002027B681A64786800F0CAFA60
:101F50007B6800225A647B681B6C23F0030343F008
:101F600001027B681A6401E00123FB737B68002295
:101F700083F83C20FB7B18461037BD4680BD00002F
:101F800080B485B000AF78600023BB607B6893F8B5
:101F90003C30012B01D1022397E07B68012283F8BA
:101FA0003C207B681B689B6803F00103012B18D061
:101FB0007B681B689A687B681B6842F001029A6024
:101FC000454B1B68454AA2FB03239A0C13465B0052
:101FD0001344BB6002E0BB68013BBB60BB68002BE5
:101FE000F9D17B681B689B6803F00103012B5FD16B
:101FF0007B681B6C23F4E06323F0010343F48072DD
:102000007B681A647B681B685B6803F48063002B41
:1020100007D07B681B6C23F4405343F480527B68E9
:102020001A647B681B6C03F48053B3F5805F06D1A0
:102030007B685B6C23F006027B685A6402E07B6875
:1020400000225A647B68002283F83C20244BFB600A
:102050007B681B686FF022021A60FB685B6803F004
:102060001F03002B0FD17B681B689B6803F0405354
:10207000002B29D17B681B689A687B681B6842F03B
:1020800080429A6020E07B681B68164A93421BD10D
:102090007B681B689B6803F04053002B14D17B685E
:1020A0001B689A687B681B6842F080429A600BE06C
:1020B0007B681B6C43F010027B681A647B685B6C66
:1020C00043F001027B685A64002318461437BD466A
:1020D0005DF8047B704700BF0400002083DE1B43D3
:1020E000002301400020014080B483B000AF78603D
:1020F0007B6893F83C30012B01D1022321E07B68FF
:10210000012283F83C207B681B689A687B681B6807
:1021100022F001029A607B681B689B6803F0010350
:10212000002B09D17B681B6C23F4885323F0010337
:1021300043F001027B681A647B68002283F83C202C
:10214000002318460C37BD465DF8047B704780B508
:1021500084B000AF786039600023FB607B681B6847
:102160009B6803F48063B3F5806F13D17B681B68B1
:102170009B6803F48073B3F5807F0BD17B681B6C85
:1021800043F020027B681A647B68002283F83C20BD
:10219000012363E0FFF780FEF86021E03B68B3F1C4
:1021A000FF3F1DD03B68002B07D0FFF775FE0246AE
:1021B000FB68D31A3A689A4212D27B681B681B6884
:1021C00003F00203022B0BD07B681B6C43F004026C
:1021D0007B681A647B68002283F83C2003233DE07F
:1021E0007B681B681B6803F00203022BD6D17B6857
:1021F0001B686FF012021A607B681B6C43F400725C
:102200007B681A647B681B689B6803F04053002B53
:1022100023D17B681B7E002B1FD17B681B68DB6A88
:1022200003F47003002B06D07B681B689B6803F4E3
:102230008063002B11D17B681B6C23F480727B6858
:102240001A647B681B6C03F48053002B05D17B68F8
:102250001B6C43F001027B681A6400231846103798
:10226000BD4680BD80B483B000AF78607B681B68DA
:10227000DB6C18460C37BD465DF8047B70470000E8
:1022800080B485B000AF786039600023BB607B68A4
:1022900093F83C30012B01D1022313E17B6801222A
:1022A00083F83C203B681B68092B25D97B681B6899
:1022B000D9683B681B689BB21A4613465B001344FF
:1022C0001E3B072202FA03F3DA437B681B680A40CD
:1022D000DA607B681B68D9683B689A683B681B6852
:1022E0009BB2184603465B0003441E3B9A407B6842
:1022F0001B680A43DA6022E07B681B6819693B6847
:102300001B689BB21A4613465B001344072202FA6D
:1023100003F3DA437B681B680A401A617B681B6819
:1023200019693B689A683B681B689BB2184603466C
:102330005B0003449A407B681B680A431A613B6850
:102340005B68062B24D87B681B68596B3B685A680E
:1023500013469B001344053B1F2202FA03F3DA43A2
:102360007B681B680A405A637B681B68596B3B6833
:102370001B689BB218463B685A6813469B0013447F
:10238000053B00FA03F27B681B680A435A634CE082
:102390003B685B680C2B24D87B681B68196B3B6817
:1023A0005A6813469B001344233B1F2202FA03F38F
:1023B000DA437B681B680A401A637B681B68196BE9
:1023C0003B681B689BB218463B685A6813469B00E3
:1023D0001344233B00FA03F27B681B680A431A6329
:1023E00023E07B681B68D96A3B685A6813469B00E8
:1023F0001344413B1F2202FA03F3DA437B681B6854
:102400000A40DA627B681B68D96A3B681B689BB22A
:1024100018463B685A6813469B001344413B00FA38
:1024200003F27B681B680A43DA62294BFB607B6816
:102430001B68284A93420FD13B681B68122B0BD1B3
:10244000FB685B6823F40002FB685A60FB685B680A
:1024500043F48002FB685A607B681B681D4A934204
:102460002BD13B681B681C4A934203D03B681B6816
:10247000112B22D1FB685B6823F48002FB685A6051
:10248000FB685B6843F40002FB685A603B681B68AA
:10249000114A934211D1114B1B68114AA2FB03232D
:1024A0009A0C13469B0013445B00BB6002E0BB68C0
:1024B000013BBB60BB68002BF9D17B68002283F82D
:1024C0003C20002318461437BD465DF8047B704756
:1024D00000230140002001401200001004000020F1
:1024E00083DE1B4380B485B000AF7860794BFB601E
:1024F000FB685B6823F44032FB685A60FB685A68EB
:102500007B685B681A43FB685A607B681B685A6883
:102510007B681B6822F480725A607B681B6859686C
:102520007B681B691A027B681B680A435A607B68D8
:102530001B685A687B681B6822F040725A607B688F
:102540001B6859687B689A687B681B680A435A60F5
:102550007B681B689A687B681B6822F400629A603B
:102560007B681B6899687B68DA687B681B680A432C
:102570009A607B689B6A584A934222D07B681B68AA
:102580009A687B681B6822F070629A607B681B689F
:1025900099687B689A6A7B681B680A439A607B68C3
:1025A0001B689A687B681B6822F040529A607B68BF
:1025B0001B6899687B68DA6A7B681B680A439A60C3
:1025C0000FE07B681B689A687B681B6822F070626A
:1025D0009A607B681B689A687B681B6822F040528F
:1025E0009A607B681B689A687B681B6822F002020D
:1025F0009A607B681B6899687B681B7E5A007B68C1
:102600001B680A439A607B6893F82030002B1BD02C
:102610007B681B685A687B681B6842F400625A60DA
:102620007B681B685A687B681B6822F460425A60AA
:102630007B681B6859687B685B6A013B5A037B684F
:102640001B680A435A6007E07B681B685A687B680E
:102650001B6822F400625A607B681B68DA6A7B6838
:102660001B6822F47002DA627B681B68D96A7B6897
:10267000DB69013B1A057B681B680A43DA627B68E9
:102680001B689A687B681B6822F400729A607B68FA
:102690001B6899687B6893F830305A027B681B6826
:1026A0000A439A607B681B689A687B681B6822F4FF
:1026B00080629A607B681B6899687B685B699A0294
:1026C0007B681B680A439A6000BF1437BD465DF8FB
:1026D000047B7047002301400100000F80B485B0E7
:1026E00000AF78607B6803F00703FB600C4BDB688E
:1026F000BB60BA684FF6FF031340BB60FB681A0269
:10270000BB68134343F0BF6343F40033BB60044A28
:10271000BB68D36000BF1437BD465DF8047B7047CB
:1027200000ED00E080B400AF044BDB681B0A03F04F
:1027300007031846BD465DF8047B704700ED00E0D6
:1027400080B483B000AF0346FB7197F90730002BCC
:102750000BDBFB7903F01F02074997F907305B0990
:10276000012000FA02F241F8232000BF0C37BD46D9
:102770005DF8047B704700BF00E100E080B483B0E7
:1027800000AF03463960FB7197F90730002B0ADB75
:102790003B68DAB20C4997F907301201D2B20B4408
:1027A00083F800230AE03B68DAB20849FB7903F0BA
:1027B0000F03043B1201D2B20B441A7600BF0C3750
:1027C000BD465DF8047B704700E100E000ED00E0ED
:1027D00080B489B000AFF860B9607A60FB6803F03C
:1027E0000703FB61FB69C3F10703042B28BF042324
:1027F000BB61FB690433062B02D9FB69033B00E094
:1028000000237B614FF0FF32BB6902FA03F3DA4326
:10281000BB681A407B699A404FF0FF317B6901FA2F
:1028200003F3D9437B680B40134318462437BD4656
:102830005DF8047B7047000080B582B000AF78601F
:102840007B68013BB3F1807F01D301230FE00A4A8B
:102850007B68013B53600F214FF0FF30FFF78EFF85
:10286000054B00229A60044B07221A600023184689
:102870000837BD4680BD00BF10E000E080B582B0E3
:1028800000AF78607868FFF729FF00BF0837BD46C2
:1028900080BD80B586B000AF0346B9607A60FB7337
:1028A00000237B61FFF73EFF78617A68B968786939
:1028B000FFF78EFF024697F90F3011461846FFF7D3
:1028C0005DFF00BF1837BD4680BD80B582B000AF48
:1028D0000346FB7197F907301846FFF731FF00BF39
:1028E0000837BD4680BD80B582B000AF786078689B
:1028F000FFF7A2FF034618460837BD4680BD00001B
:1029000080B586B000AF786000237B61FFF7C4FA22
:1029100038617B68002B01D1012399E07B6802229A
:1029200083F835207B68002283F834207B681B689D
:102930001A687B681B6822F001021A600FE0FFF73B
:10294000ABFA02463B69D31A052B08D97B682022D3
:102950005A657B68032283F83520032378E07B687F
:102960001B681B6803F00103002BE8D17B681B6820
:102970001B687B617A69384B13407B617B685A68BE
:102980007B689B681A437B68DB681A437B681B691A
:102990001A437B685B691A437B689B691A437B68AF
:1029A000DB691A437B681B6A13437A6913437B61B3
:1029B0007B685B6A042B07D17B68DA6A7B681B6BD8
:1029C00013437A6913437B617B681B687A691A60D9
:1029D0007B681B685B697B617B6923F007037B6114
:1029E0007B685B6A7A6913437B617B685B6A042B53
:1029F00017D17B689B6A7A6913437B617B68DB6ACA
:102A0000002B0ED0786800F06FFA0346002B08D038
:102A10007B6840225A657B68012283F835200123B8
:102A200016E07B681B687A695A61786800F026FABC
:102A30000346FB607B68DB6D3F229A40FB689A602F
:102A40007B6800225A657B68012283F835200023C9
:102A500018461837BD4680BD3F8010F080B586B05F
:102A600000AFF860B9607A603B600023FB75FB68DB
:102A70009B6D3B61FB6893F83430012B01D102233D
:102A800040E0FB68012283F83420FB6893F835307E
:102A9000DBB2012B2FD1FB68022283F83520FB68C3
:102AA00000225A653B687A68B968F86800F0B8F99E
:102AB000FB68DB6D3F229A403B699A60FB681B68AC
:102AC0001A68FB681B6842F016021A60FB681B6CF0
:102AD000002B07D0FB681B681A68FB681B6842F074
:102AE00008021A60FB681B681A68FB681B6842F0E2
:102AF00001021A6005E0FB68002283F834200223FB
:102B0000FB75FB7D18461837BD4680BD80B586B085
:102B100000AF78600023BB608E4B1B688E4AA2FB1F
:102B200003239B0A7B617B689B6D3B613B691B6850
:102B3000FB607B68DB6D08229A40FB681340002B2A
:102B40001AD07B681B681B6803F00403002B13D0AA
:102B50007B681B681A687B681B6822F004021A6095
:102B60007B68DB6D08229A403B699A607B685B6DED
:102B700043F001027B685A657B68DB6D01229A4055
:102B8000FB681340002B12D07B681B685B6903F065
:102B90008003002B0BD07B68DB6D01229A403B69E0
:102BA0009A607B685B6D43F002027B685A657B68C4
:102BB000DB6D04229A40FB681340002B12D07B6827
:102BC0001B681B6803F00203002B0BD07B68DB6DD6
:102BD00004229A403B699A607B685B6D43F0040273
:102BE0007B685A657B68DB6D10229A40FB68134056
:102BF000002B43D07B681B681B6803F00803002B85
:102C00003CD07B68DB6D10229A403B699A607B6800
:102C10001B681B6803F48023002B18D07B681B689B
:102C20001B6803F40023002B08D17B681B6C002B6E
:102C300024D07B681B6C786898471FE07B689B6C8E
:102C4000002B1BD07B689B6C7868984716E07B68EC
:102C50001B681B6803F48073002B07D17B681B681B
:102C60001A687B681B6822F008021A607B681B6C7C
:102C7000002B03D07B681B6C786898477B68DB6D02
:102C800020229A40FB681340002B00F08F807B6865
:102C90001B681B6803F01003002B00F087807B6823
:102CA000DB6D20229A403B699A607B6893F835304F
:102CB000DBB2052B36D17B681B681A687B681B6802
:102CC00022F016021A607B681B685A697B681B68D1
:102CD00022F080025A617B681B6C002B03D17B6859
:102CE0009B6C002B07D07B681B681A687B681B688D
:102CF00022F008021A607B68DB6D3F229A403B6934
:102D00009A607B68012283F835207B68002283F873
:102D100034207B681B6D002B7ED07B681B6D786830
:102D2000984779E07B681B681B6803F48023002BBD
:102D30001DD07B681B681B6803F40023002B0DD19A
:102D40007B685B6C002B31D07B685B6C7868984744
:102D50002CE000BF04000020B5814E1B7B68DB6BBC
:102D6000002B23D07B68DB6B786898471EE07B687C
:102D70001B681B6803F48073002B0FD17B681B68F2
:102D80001A687B681B6822F010021A607B680122B7
:102D900083F835207B68002283F834207B68DB6B66
:102DA000002B03D07B68DB6B786898477B685B6D92
:102DB000002B32D07B685B6D03F00103002B22D027
:102DC0007B68052283F835207B681B681A687B685E
:102DD0001B6822F001021A60BB680133BB607A698C
:102DE0009A4207D37B681B681B6803F00103002B22
:102DF000F2D100E000BF7B68012283F835207B68B8
:102E0000002283F834207B68DB6C002B05D07B68C4
:102E1000DB6C7868984700E000BF1837BD4680BD7E
:102E200080B485B000AFF860B9607A603B60FB6841
:102E30001B681A68FB681B6822F480221A60FB6812
:102E40001B683A685A60FB689B68402B08D1FB6896
:102E50001B687A689A60FB681B68BA68DA6007E0EA
:102E6000FB681B68BA689A60FB681B687A68DA605E
:102E700000BF1437BD465DF8047B704780B485B051
:102E800000AF78607B681B68DBB2103B144AA2FB82
:102E900003231B09FB60134AFB6813441B781A4683
:102EA0007B68DA65FB68032B09D97B681B6823F410
:102EB0007F7323F003031A1D7B689A6507E07B6824
:102EC0001B6823F47F7323F003037A6893657B68A0
:102ED0009B6D18461437BD465DF8047B704700BFF4
:102EE000ABAAAAAAC89A000880B485B000AF7860DF
:102EF0000023FB737B689B6ABB607B689B69002B2C
:102F00001FD1BB68032B56D801A252F823F000BF93
:102F1000212F0008332F0008212F0008B72F0008A9
:102F20007B68DB6A03F08073002B46D00123FB73C0
:102F300043E07B68DB6AB3F1C07F40D10123FB73C0
:102F40003DE07B689B69B3F5005F21D1BB68032B33
:102F500037D801A252F823F0692F00086F2F00081C
:102F6000692F0008812F00080123FB7330E07B6884
:102F7000DB6A03F08073002B25D00123FB7322E072
:102F80007B68DB6AB3F1C07F1FD10123FB731CE0B8
:102F9000BB68022B03D9BB68032B03D018E00123C5
:102FA000FB7315E07B68DB6A03F08073002B0ED0A7
:102FB0000123FB730BE000BF0AE000BF08E000BF85
:102FC00006E000BF04E000BF02E000BF00E000BF79
:102FD000FB7B18461437BD465DF8047B704700BF85
:102FE00080B489B000AF7860396000237B61002332
:102FF0003B610023BB610023FB6159E10122FB69B6
:1030000002FA03F37B613B681B687A6913403B61FA
:103010003A697B699A4240F048813B685B6803F0FB
:103020000303012B05D03B685B6803F00303022B0D
:1030300030D17B689B68BB61FB695B00032202FAAD
:1030400003F3DB43BA691340BB613B68DA68FB6991
:103050005B0002FA03F3BA691343BB617B68BA6988
:103060009A607B685B68BB610122FB6902FA03F32B
:10307000DB43BA691340BB613B685B681B0903F023
:103080000102FB6902FA03F3BA691343BB617B686F
:10309000BA695A603B685B6803F00303032B17D0DF
:1030A0007B68DB68BB61FB695B00032202FA03F308
:1030B000DB43BA691340BB613B689A68FB695B00FC
:1030C00002FA03F3BA691343BB617B68BA69DA6039
:1030D0003B685B6803F00303022B23D1FB69DA082A
:1030E0007B68083253F82230BB61FB6903F00703A9
:1030F0009B000F2202FA03F3DB43BA691340BB6162
:103100003B681A69FB6903F007039B0002FA03F3AB
:10311000BA691343BB61FB69DA087B680832B96995
:1031200043F822107B681B68BB61FB695B000322CC
:1031300002FA03F3DB43BA691340BB613B685B6887
:1031400003F00302FB695B0002FA03F3BA6913435D
:10315000BB617B68BA691A603B685B6803F4403303
:10316000002B00F0A2800023FB60574B5B6C564A9B
:1031700043F480435364544B5B6C03F48043FB6023
:10318000FB68524AFB699B08023352F82330BB614B
:10319000FB6903F003039B000F2202FA03F3DB43F6
:1031A000BA691340BB617B68494A934219D07B6876
:1031B000484A934213D07B68474A93420DD07B68BC
:1031C000464A934207D07B68454A934201D1042383
:1031D00008E0072306E0032304E0022302E00123C2
:1031E00000E00023FA6902F0030292009340BA69FA
:1031F0001343BB613549FB699B080233BA6941F847
:103200002320384B9B68BB613B69DB43BA691340A1
:10321000BB613B685B6803F48013002B03D0BA6981
:103220003B691343BB612F4ABB6993602D4BDB683D
:10323000BB613B69DB43BA691340BB613B685B68B8
:1032400003F40013002B03D0BA693B691343BB613D
:10325000244ABB69D360234B5B68BB613B69DB439A
:10326000BA691340BB613B685B6803F40033002B11
:1032700003D0BA693B691343BB611A4ABB69536007
:10328000184B1B68BB613B69DB43BA691340BB61E8
:103290003B685B6803F48033002B03D0BA693B6959
:1032A0001343BB610F4ABB691360FB690133FB61C8
:1032B000FB690F2B7FF6A2AE00BF00BF2437BD46CF
:1032C0005DF8047B704700BF0038024000380140C1
:1032D000000002400004024000080240000C0240CE
:1032E00000100240003C014080B483B000AF786021
:1032F0000B467B8013467B707B78002B03D07A884B
:103300007B689A6103E07B881A047B689A6100BF3E
:103310000C37BD465DF8047B7047000080B588B06F
:1033200000AF78607B68002B01D1012328E17B6826
:1033300093F84130DBB2002B09D17B68002283F87F
:1033400040207B68904A5A637868FEF729FA7B68C8
:10335000022283F841207B681B68DB697A68126867
:1033600023F47B6323F00F03D3617B681B68022285
:103370001A627B685B69022B60D07B68DB68002B7C
:1033800002D110237B6101E020237B617B689B6875
:10339000202B02D87B695B007B61012001F09AFB46
:1033A000F8607B681B69B3F5007F25D17B68DB681B
:1033B000002B10D07B699B00FA68B2FBF3F2134636
:1033C0009B0013445B001A467B685B69B2FBF3F316
:1033D00005333B611FE07B69DB00FA68B2FBF3F267
:1033E00013469B0013445B001A467B685B69B2FB83
:1033F000F3F305333B610EE0FA687B69B2FBF3F24D
:1034000013469B0013445B001A467B685B69B2FB62
:10341000F3F305333B613B695C4AA2FB0323DB0802
:103420003B613B6903F00103BB613A69BB69D31A95
:103430005B08FB61BB691B02BB6103E00223FB610C
:103440000023BB61FB69012B02D9FB69FF2B07D964
:103450007B685B6C43F010027B685A6401238FE049
:103460007B681A69BB6942EA03017B681B68FA69D9
:103470000A431A627B681B68DB6923F47B6323F0D1
:103480000F037A6851687A68926811437A68D26843
:1034900011437A6892690A431A437B681B6842F4B5
:1034A0000062DA617B681B6A012B61D17B68384A54
:1034B0005A637B681B68374A934201D1364B01E05F
:1034C0004FF04023DB697A68126832498A4201D1A1
:1034D000314A01E04FF0402223F47B6323F00F03D5
:1034E000D3617B681B682B4A934201D12A4B01E0D0
:1034F0004FF0402302221A627B681B68254A9342E0
:1035000001D1254B01E04FF04023DB697B817B68D3
:103510005B68B3F5007F03D07B685B68002B03D149
:103520004FF480733B6101E000233B613B699AB239
:103530007B689B689BB213439AB27B68DB689BB243
:1035400013439AB27B689B699BB213439AB27B89FF
:1035500013439BB243F400637B817B681B680D4A75
:10356000934201D10C4B01E04FF040237A89DA619C
:103570007B6800225A647B68012283F84120002383
:1035800018462037BD4680BD7B3A0008CDCCCCCC58
:10359000913B0008003800400034004080B586B000
:1035A00000AFF860B9601346FB80BB68002B02D007
:1035B000FB88002B01D101238EE0FB6893F840309B
:1035C000DBB2012B01D1022386E0FB68012283F8E4
:1035D0004020FB6893F84130DBB2012B05D0FB683B
:1035E000002283F84020022376E0FB68032283F860
:1035F0004120FB6800225A64FB68BA685A62FB6883
:103600001B68DB6903F007037B617B69032B02D036
:103610007B69052B0AD1FB885B009AB2FB681A858F
:10362000FB885B009AB2FB685A8505E0FB68FA8864
:103630001A85FB68FA885A85FB689B6B284A1A64CE
:10364000FB689B6B274ADA63FB689B6B264ADA644C
:10365000FB68986BFB685B6A1946FB681B680C3358
:103660001A46FB681B8D9BB2FFF7F8F90346002B47
:103670000FD0FB685B6C43F00802FB685A64FB6880
:10368000012283F84120FB68002283F840200123B7
:1036900022E0FB681B68DB6903F48063002B07D121
:1036A000FB681B68DA69FB681B6842F48062DA61B8
:1036B000FB681B685B6803F00203002B07D1FB6803
:1036C0001B685A68FB681B6842F002025A60FB687C
:1036D000002283F84020002318461837BD4680BDDD
:1036E000FB380008B93800087539000880B586B085
:1036F00000AFF860B9601346FB80BB68002B02D0B6
:10370000FB88002B01D10123A1E0FB6893F8403036
:10371000DBB2012B01D1022399E0FB68012283F87F
:103720004020FB6893F84130DBB2012B05D0FB68E9
:10373000002283F84020022389E0FB68042283F8FA
:103740004120FB6800225A64FB68BA68DA62FB68B1
:103750001B68DB6903F007037B617B69032B02D0E5
:103760007B69052B0AD1FB885B009AB2FB681A863D
:10377000FB885B009AB2FB685A8605E0FB68FA8812
:103780001A86FB68FA885A86FB68DB6B324A1A6431
:10379000FB68DB6B314ADA63FB68DB6B304ADA6467
:1037A000FB681B68DB6903F44073B3F5407F0AD103
:1037B00000233B61FB681B68DB683B61FB681B689F
:1037C0009B683B613B69FB68D86BFB681B680C33EB
:1037D0001946FB68DB6A1A46FB681B8E9BB2FFF733
:1037E0003DF90346002B0FD0FB685B6C43F00802E9
:1037F000FB685A64FB68012283F84120FB680022C1
:1038000083F84020012322E0FB681B68DB6903F496
:103810008063002B07D1FB681B68DA69FB681B68B3
:1038200042F48062DA61FB681B685B6803F00103A5
:10383000002B07D1FB681B685A68FB681B6842F0C5
:1038400001025A60FB68002283F8402000231846DA
:103850001837BD4680BD00BF593900081739000828
:103860007539000880B582B000AF78607B685B6B0B
:103870007868984700BF0837BD4680BD80B483B0E4
:1038800000AF786000BF0C37BD465DF8047B704721
:1038900080B483B000AF786000BF0C37BD465DF8E0
:1038A000047B704780B483B000AF786000BF0C37F2
:1038B000BD465DF8047B704780B584B000AF78608A
:1038C0007B689B6BFB607B68DB69002B0ED1FB6820
:1038D0001B685A68FB681B6822F002025A60FB688A
:1038E00000225A85FB68012283F84120F868FFF71F
:1038F000CFFF00BF1037BD4680BD80B584B000AF9C
:1039000078607B689B6BFB60F868FFF7B7FF00BFD0
:103910001037BD4680BD80B584B000AF78607B684D
:103920009B6BFB607B68DB69002B0ED1FB681B681F
:103930005A68FB681B6822F001025A60FB6800228B
:103940005A86FB68012283F84120F868FDF7F0FBF6
:1039500000BF1037BD4680BD80B584B000AF786031
:103960007B689B6BFB60F868FDF7CCFB00BF1037F2
:10397000BD4680BD80B584B000AF78607B689B6B2E
:10398000FB60FB681B685A68FB681B6822F0030237
:103990005A60FB6800225A85FB6800225A86FB6841
:1039A000012283F84120FB685B6C43F00802FB684E
:1039B0005A64F868FFF776FF00BF1037BD4680BD38
:1039C00080B582B000AF78607B685B6A1A887B68DC
:1039D0001B68DA607B685B6A9A1C7B685A627B684A
:1039E0005B8D9BB2013B9AB27B685A857B685B8D8D
:1039F0009BB2002B0ED17B681B685A687B681B68E2
:103A000022F0A0025A607B68012283F84120786886
:103A1000FFF73EFF00BF0837BD4680BD80B582B0CE
:103A200000AF78607B681B68DA687B68DB6A92B2FB
:103A30001A807B68DB6A9A1C7B68DA627B685B8E23
:103A40009BB2013B9AB27B685A867B685B8E9BB2C5
:103A5000002B0ED17B681B685A687B681B6822F0BC
:103A600060025A607B68012283F841207868FDF784
:103A70005FFB00BF0837BD4680BD80B586B000AF94
:103A800078607B681B689B687B617B6893F841303A
:103A9000DBB2042B3AD17B6903F00103012B09D17E
:103AA0007B681B685B6803F04003402B02D1786899
:103AB000FFF7B4FF7B6903F04003402B26D17B68FE
:103AC0001B685B6803F02003202B1FD17B681B68F9
:103AD0005A687B681B6822F060025A6000233B61D1
:103AE0007B681B68DB683B617B681B689B683B618C
:103AF0003B697B68012283F841207B685B6C43F063
:103B000002027B685A647868FFF7CCFE7B6893F802
:103B10004130DBB2032B36D17B6903F00203022B69
:103B200009D17B681B685B6803F08003802B02D19E
:103B30007868FFF745FF7B6903F00803082B22D163
:103B40007B681B685B6803F02003202B1BD17B681C
:103B50001B685A687B681B6822F0A0025A60002329
:103B6000FB607B681B689B68FB60FB687B680122CD
:103B700083F841207B685B6C43F004027B685A64E5
:103B80007868FFF78FFE00BF1837BD4680BD000084
:103B900080B588B000AF78607B681B689B68FB616C
:103BA0007B681B68924A934201D1924B01E04FF02F
:103BB00040239B68BB617B681B685B687B617B689B
:103BC0001B688B4A934201D18A4B01E04FF040239E
:103BD0005B683B617B685B68B3F5007F04D07B6802
:103BE0005B68002B40F09980FB6903F00203022B15
:103BF00007D17B6903F08003002B02D0786800F0C6
:103C000025F9BB6903F00103012B07D13B6903F0E0
:103C10004003002B02D0786800F0C8F9BB6903F0BC
:103C20004003402B3AD13B6903F02003002B35D0F1
:103C30007B681B686E4A934201D16E4B01E04FF0E6
:103C400040235A687B681B6869498B4201D1694BE4
:103C500001E04FF0402322F060025A607B681B684D
:103C60005A687B681B6822F0A0025A600023FB6040
:103C70007B681B68DB68FB607B681B689B68FB607C
:103C8000FB687B68012283F841207B685B6C43F012
:103C900002027B685A647868FFF704FEFB6903F050
:103CA0000803082B40F0C3807B6903F02003002B3E
:103CB00000F0BD807B681B685A687B681B6822F037
:103CC000A0025A607B681B68494A934201D1494B64
:103CD00001E04FF040235A687B681B6844498B42DF
:103CE00001D1444B01E04FF0402322F060025A60C2
:103CF0000023BB607B681B689B68BB60BB687B68FC
:103D0000012283F841207B685B6C43F004027B68EE
:103D10005A647868FFF7C6FD89E0BB6903F00203C7
:103D2000022B07D13B6903F08003002B02D0786897
:103D300000F0BEF8FB6903F00103012B07D17B699A
:103D400003F04003002B02D0786800F0FDF8FB6917
:103D500003F04003402B2FD17B6903F02003002B9D
:103D60002AD07B681B685A687B681B6822F0600257
:103D70005A607B681B681E4A934201D11D4B01E0CB
:103D80004FF040235A687B681B6819498B4201D168
:103D9000184B01E04FF0402322F0A0025A607B68EC
:103DA000012283F841207B685B6C43F002027B6850
:103DB0005A647868FFF776FDBB6903F00803082BA7
:103DC00036D13B6903F02003002B31D07B681B68A0
:103DD000074A934201D1074B01E04FF040235A6854
:103DE0007B681B6802498B4206D1024B06E000BF8C
:103DF00000380040003400404FF0402322F0A00281
:103E00005A607B681B685A687B681B6822F06002F6
:103E10005A607B68012283F841207B685B6C43F029
:103E200004027B685A647868FFF73CFD00E000BF3D
:103E300000BF2037BD4680BD80B483B000AF78603E
:103E400000BF0C37BD465DF8047B704780B582B07B
:103E500000AF78607B685B6A991C7A6851621A8847
:103E60007B681B68DA607B685B8D9BB2013B9AB212
:103E70007B685A857B685B8D9BB2002B13D17B6876
:103E80001B685A687B681B6822F0A0025A607B6836
:103E90005B8E9BB2002B06D17B68012283F8412008
:103EA0007868FFF7C9FF00BF0837BD4680BD000036
:103EB00080B582B000AF78607B685B6A991C7A68D5
:103EC000516219887B681B681D4A934201D11D4BC2
:103ED00001E04FF040230A46DA607B685B8D9BB2BD
:103EE000013B9AB27B685A857B685B8D9BB2002B45
:103EF00021D17B681B68124A934201D1114B01E02A
:103F00004FF040235A687B681B680D498B4201D1F2
:103F10000C4B01E04FF0402322F0A0025A607B6876
:103F20005B8E9BB2002B06D17B68012283F8412077
:103F30007868FFF781FF00BF0837BD4680BD00BF2E
:103F4000003800400034004080B582B000AF786097
:103F50007B681B68D8687B68DB6A991C7A68D162C9
:103F600082B21A807B685B8E9BB2013B9AB27B68FF
:103F70005A867B685B8E9BB2002B13D17B681B68D3
:103F80005A687B681B6822F060025A607B685B8D10
:103F90009BB2002B06D17B68012283F84120786810
:103FA000FFF74AFF00BF0837BD4680BD80B582B02D
:103FB00000AF78607B681B68204A934201D1204B98
:103FC00001E04FF04023D8687B68DB6A991C7A686F
:103FD000D16282B21A807B685B8E9BB2013B9AB23F
:103FE0007B685A867B685B8E9BB2002B21D17B68F5
:103FF0001B68124A934201D1114B01E04FF040235C
:104000005A687B681B680D498B4201D10C4B01E05B
:104010004FF0402322F060025A607B685B8D9BB2B8
:10402000002B06D17B68012283F841207868FFF7D6
:1040300003FF00BF0837BD4680BD00BF0038004009
:104040000034004080B586B000AF78607B68002BFC
:1040500001D1012367E27B681B6803F00103002B99
:1040600075D0884B9B6803F00C03042B0CD0854B58
:104070009B6803F00C03082B12D1824B5B6803F49E
:104080008003B3F5800F0BD17E4B1B6803F4003324
:10409000002B5BD07B685B68002B57D1012342E289
:1040A0007B685B68B3F5803F06D1764B1B68754A29
:1040B00043F4803313601DE07B685B68B3F5A02F89
:1040C0000CD1704B1B686F4A43F4802313606D4B17
:1040D0001B686C4A43F4803313600BE0694B1B6828
:1040E000684A23F480331360664B1B68654A23F4E7
:1040F000802313607B685B68002B13D0FDF7CCFE38
:10410000386108E0FDF7C8FE02463B69D31A642B0C
:1041100001D9032307E25B4B1B6803F40033002B38
:10412000F0D014E0FDF7B8FE386108E0FDF7B4FE0A
:1041300002463B69D31A642B01D90323F3E1514BA7
:104140001B6803F40033002BF0D100E000BF7B6854
:104150001B6803F00203002B63D04A4B9B6803F0FB
:104160000C03002B0BD0474B9B6803F00C03082B70
:104170001CD1444B5B6803F48003002B16D1414BE8
:104180001B6803F00203002B05D07B68DB68012B62
:1041900001D00123C7E13B4B1B6823F0F8027B6889
:1041A0001B69DB00374913430B603AE07B68DB682F
:1041B000002B20D0344B01221A60FDF76DFE3861D0
:1041C00008E0FDF769FE02463B69D31A022B01D9CC
:1041D0000323A8E12B4B1B6803F00203002BF0D054
:1041E000284B1B6823F0F8027B681B69DB0025491C
:1041F00013430B6015E0244B00221A60FDF74CFEC0
:10420000386108E0FDF748FE02463B69D31A022BED
:1042100001D9032387E11B4B1B6803F00203002B2A
:10422000F0D17B681B6803F00803002B36D07B6855
:104230005B69002B16D0154B01221A60FDF72CFE8E
:10424000386108E0FDF728FE02463B69D31A022BCD
:1042500001D9032367E10B4B5B6F03F00203002BD3
:10426000F0D01BE0094B00221A60FDF715FE386103
:104270000EE0FDF711FE02463B69D31A022B07D967
:10428000032350E10038024000004742800E4742BD
:10429000884B5B6F03F00203002BEAD17B681B683D
:1042A00003F00403002B00F097800023FB75814B83
:1042B0001B6C03F08053002B0FD10023BB607D4BA0
:1042C0001B6C7C4A43F0805313647A4B1B6C03F0E5
:1042D0008053BB60BB680123FB75774B1B6803F4FD
:1042E0008073002B18D1744B1B68734A43F480739E
:1042F0001360FDF7D1FD386108E0FDF7CDFD024602
:104300003B69D31A022B01D903230CE16A4B1B68CA
:1043100003F48073002BF0D07B689B68012B06D1DF
:10432000644B1B6F634A43F0010313671CE07B6817
:104330009B68052B0CD15F4B1B6F5E4A43F0040357
:1043400013675C4B1B6F5B4A43F0010313670BE081
:10435000584B1B6F574A23F001031367554B1B6FD4
:10436000544A23F0040313677B689B68002B15D025
:10437000FDF792FD38610AE0FDF78EFD02463B69CC
:10438000D31A41F28832934201D90323CBE0494B3F
:104390001B6F03F00203002BEED014E0FDF77CFD51
:1043A00038610AE0FDF778FD02463B69D31A41F215
:1043B0008832934201D90323B5E03E4B1B6F03F0D3
:1043C0000203002BEED1FB7D012B05D1394B1B6C79
:1043D000384A23F0805313647B689B69002B00F0FC
:1043E000A180344B9B6803F00C03082B5CD07B68E6
:1043F0009B69022B41D1314B00221A60FDF74CFD25
:10440000386108E0FDF748FD02463B69D31A022BEC
:1044100001D9032387E0274B1B6803F00073002BAF
:10442000F0D17B68DA697B681B6A1A437B685B6A38
:104430009B011A437B689B6A5B08013B1B041A4380
:104440007B68DB6A1B061B4913434B601B4B012235
:104450001A60FDF721FD386108E0FDF71DFD0246F9
:104460003B69D31A022B01D903235CE0114B1B6873
:1044700003F00073002BF0D054E0104B00221A60C0
:10448000FDF70AFD386108E0FDF706FD02463B69CD
:10449000D31A022B01D9032345E0064B1B6803F016
:1044A0000073002BF0D13DE07B689B69012B07D1A5
:1044B000012338E0003802400070004060004742AD
:1044C0001B4B5B68FB607B689B69012B28D0FB68FA
:1044D00003F480027B68DB699A4221D1FB6803F018
:1044E0003F027B681B6A9A421AD1FA6847F6C0738A
:1044F00013407A68526A9201934211D1FB6803F427
:1045000040327B689B6A5B08013B1B049A4207D1DF
:10451000FB6803F070627B68DB6A1B069A4201D07D
:10452000012300E0002318461837BD4680BD00BFB8
:104530000038024080B584B000AF786039607B6895
:10454000002B01D10123CCE0684B1B6803F007036B
:104550003A689A420CD9654B3A68D2B21A70634BEA
:104560001B6803F007033A689A4201D00123B8E0C0
:104570007B681B6803F00203002B20D07B681B685C
:1045800003F00403002B05D0594B9B68584A43F4B1
:10459000E05393607B681B6803F00803002B05D091
:1045A000534B9B68524A43F460439360504B9B6863
:1045B00023F0F0027B689B684D4913438B607B6856
:1045C0001B6803F00103002B44D07B685B68012B60
:1045D00007D1474B1B6803F40033002B19D101238B
:1045E0007FE07B685B68022B03D07B685B68032BF2
:1045F00007D13F4B1B6803F00073002B09D1012347
:104600006FE03B4B1B6803F00203002B01D1012339
:1046100067E0374B9B6823F003027B685B68344993
:1046200013438B60FDF738FCF8600AE0FDF734FCBB
:104630000246FB68D31A41F28832934201D9032320
:104640004FE02B4B9B6803F00C027B685B689B0080
:104650009A42EBD1254B1B6803F007033A689A4254
:104660000CD2224B3A68D2B21A70204B1B6803F06E
:1046700007033A689A4201D0012332E07B681B6845
:1046800003F00403002B08D0194B9B6823F4E0527D
:104690007B68DB68164913438B607B681B6803F0FB
:1046A0000803002B09D0124B9B6823F460427B68FF
:1046B0001B69DB000E4913438B6000F021F80246B2
:1046C0000B4B9B681B0903F00F030A49CB5C22FAD2
:1046D00003F3094A1360094B1B681846FDF798FB62
:1046E000002318461037BD4680BD00BF003C024085
:1046F00000380240B09A00080400002008000020A2
:104700002DE9B04F90B000AF00237B630023FB6323
:1047100000233B630023BB63594B9B6803F00C03EE
:10472000082B0DD0082B00F2A180002B02D0042B07
:1047300003D09BE0534BBB639BE0534BBB6398E0C0
:104740004F4B5B6803F03F037B634D4B5B6803F4A7
:104750008003002B28D04A4B5B689B0900223B62F8
:104760007A623B6AC3F308000021474B03FB01F266
:10477000002300FB03F31344434AA0FB0212FA6236
:104780000A46BA62FA6A1344FB627B6B0022BB6181
:10479000FA61D7E90623D7E90A01FCF77DFA024658
:1047A0000B461346FB6353E0354B5B689B090022C5
:1047B0003B617A613B69C3F3080A4FF0000B524634
:1047C0005B464FF000004FF00001590141EAD26111
:1047D000500102460B46B2EB0A0863EB0B094FF09F
:1047E00000024FF000034FEA891343EA98634FEA4F
:1047F0008812B2EB080463EB09054FF000024FF09A
:104800000003EB0043EA5473E20014461D4614EB28
:104810000A033B6045EB0B037B604FF000024FF057
:104820000003D7E9004529468B02214643EA91530C
:1048300021468A02104619467B6B0022BB60FA6053
:10484000D7E90223FCF728FA02460B461346FB631E
:104850000B4B5B681B0C03F0030301335B003B63F2
:10486000FA6B3B6BB2FBF3F3BB6302E0054BBB633C
:1048700000BFBB6B18464037BD46BDE8B08F00BFD8
:10488000003802400024F40040787D0180B400AF7D
:10489000034B1B681846BD465DF8047B704700BF9C
:1048A0000400002080B500AFFFF7F0FF0246054B83
:1048B0009B689B0A03F007030349CB5C22FA03F3CE
:1048C000184680BD00380240C09A000880B500AF8D
:1048D000FFF7DCFF0246054B9B685B0B03F0070309
:1048E0000349CB5C22FA03F3184680BD003802402E
:1048F000C09A000880B586B000AF786000237B6165
:1049000000233B617B681B6803F00103002B05D18A
:104910007B681B6803F00403002B38D0684B00222F
:104920001A60FDF7B9FA786108E0FDF7B5FA0246BA
:104930007B69D31A022B01D90323BDE0614B1B68AD
:1049400003F00063002BF0D17B685A687B689B689A
:104950009B011A437B68DB681B075A491343C1F864
:104960008430574B01221A60FDF796FA786108E00F
:10497000FDF792FA02467B69D31A022B01D9032371
:104980009AE0504B1B6803F00063002BF0D07B686B
:104990001B6803F00203002B00F083800023FB6000
:1049A000484B1B6C474A43F080531364454B1B6CC8
:1049B00003F08053FB60FB68434B1B68424A43F49F
:1049C00080731360FDF768FA786108E0FDF764FA18
:1049D00002467B69D31A022B01D903236CE03A4BC0
:1049E0001B6803F48073002BF0D0364B1B6F03F46D
:1049F00040733B613B69002B2FD07B681B6903F43C
:104A000040733A699A4228D02E4B1B6F23F44073AF
:104A10003B612E4B01221A602C4B00221A60294A5E
:104A20003B691367274B1B6F03F00103012B14D164
:104A3000FDF732FA78610AE0FDF72EFA02467B694B
:104A4000D31A41F28832934201D9032334E01D4B3B
:104A50001B6F03F00203002BEED07B681B6903F48D
:104A60004073B3F5407F0DD1164B9B6823F4F812C9
:104A70007B681B6923F0704323F44073114913438F
:104A80008B6005E00F4B9B680E4A23F4F81393608C
:104A90000C4B1A6F7B681B69C3F30B030949134363
:104AA0000B677B681B6803F00803002B03D07B684F
:104AB0001A7D074B1A60002318461837BD4680BD83
:104AC000680047420038024000700040400E4742F4
:104AD000E011474280B487B000AF786000237B616B
:104AE00000233B610023FB600023BB607B68012B3C
:104AF00041D1254B9B6803F40003FB60FB68002B4E
:104B000006D0FB68B3F5000F31D1204B7B6131E05B
:104B10001D4B5B6803F48003B3F5800F09D11A4B7A
:104B2000D3F8843003F03F03194AB2FBF3F33B613F
:104B300008E0154BD3F8843003F03F03154AB2FB6D
:104B4000F3F33B61104BD3F884309B09C3F30802A5
:104B50003B6902FB03F3BB600B4BD3F884301B0FA4
:104B600003F00703BA68B2FBF3F37B6102E00023B2
:104B70007B6100BF00E000BF7B6918461C37BD4663
:104B80005DF8047B704700BF003802400080BB0026
:104B900040787D010024F40080B582B000AF7860D9
:104BA0007B68002B01D1012342E07B6893F8413000
:104BB000DBB2002B06D17B68002283F840207868A6
:104BC000FCF726FF7B68242283F841207B681B6862
:104BD000DA687B681B6822F40052DA60786800F0BB
:104BE00073F97B681B681A697B681B6822F4904222
:104BF0001A617B681B685A697B681B6822F02A026D
:104C00005A617B681B68DA687B681B6842F4005253
:104C1000DA607B6800225A647B68202283F8412096
:104C20007B68202283F842207B6800225A6300239D
:104C300018460837BD4680BD80B58AB002AFF8601F
:104C4000B9603B601346FB8000237B61FB6893F8EF
:104C50004130DBB2202B75D1BB68002B02D0FB8822
:104C6000002B01D101236EE0FB6800225A64FB682F
:104C7000212283F84120FDF70FF97861FB68FA885B
:104C80009A84FB68FA88DA84FB689B68B3F5805FD6
:104C900008D1FB681B69002B04D10023FB61BB68B2
:104CA000BB6103E0BB68FB610023BB612EE03B6896
:104CB00000937B6900228021F86800F048F80346E1
:104CC000002B05D0FB68202283F8412003233AE023
:104CD000FB69002B0BD1BB691B881A46FB681B685C
:104CE000C2F308025A60BB690233BB6107E0FB698B
:104CF0001A78FB681B685A60FB690133FB61FB682B
:104D0000DB8C9BB2013B9AB2FB68DA84FB68DB8CDC
:104D10009BB2002BCBD13B6800937B6900224021E2
:104D2000F86800F014F80346002B05D0FB68202239
:104D300083F84120032306E0FB68202283F841200A
:104D4000002300E0022318462037BD4680BD80B511
:104D500086B000AFF860B9603B601346FB713BE082
:104D60003B6AB3F1FF3F37D0FDF796F802463B6848
:104D7000D31A3A6A9A4202D33B6A002B01D1032329
:104D80003AE0FB681B68DB6803F00403002B23D0C8
:104D9000BB68802B20D0BB68402B1DD0FB681B68F4
:104DA0001B6803F00803082B16D100237B61FB6806
:104DB0001B681B687B61FB681B685B687B617B69A8
:104DC000F86800F01DF8FB6808225A64FB680022AE
:104DD00083F8402001230FE0FB681B681A68BB685A
:104DE0001340BA689A420CBF01230023DBB21A4673
:104DF000FB799A42B4D0002318461837BD4680BDCF
:104E000080B495B000AF78607B681B680C337B631F
:104E10007B6B53E8003F3B633B6B23F49073FB6475
:104E20007B681B680C33FA6C3A64FB63F96B3A6C71
:104E300041E80023BB63BB6B002BE5D17B681B689B
:104E400014333B623B6A53E8003FFB61FB6923F08C
:104E50000103BB647B681B681433BA6CFA62BB62E3
:104E6000B96AFA6A41E800237B627B6A002BE5D1CC
:104E70007B681B6B012B19D17B681B680C33FB60B3
:104E8000FB6853E8003FBB60BB6823F010037B6402
:104E90007B681B680C337A6CBA617B617969BA698B
:104EA00041E800233B613B69002BE5D17B68202270
:104EB00083F842207B6800221A6300BF5437BD4646
:104EC0005DF8047B704700002DE9B04FC0B000AF23
:104ED000C7F8F400D7F8F4301B681B6923F440507E
:104EE000D7F8F430D968D7F8F4301A6840EA0103EB
:104EF0001361D7F8F4309A68D7F8F4301B691A4375
:104F0000D7F8F4305B691A43D7F8F430DB69134300
:104F1000C7F8F830D7F8F4301B68DB6823F4164183
:104F200021F00C01D7F8F4301A68D7F8F8300B43A9
:104F3000D360D7F8F4301B685B6923F44070D7F86E
:104F4000F4309969D7F8F4301A6840EA01035361E4
:104F5000D7F8F4301A688F4B9A4205D0D7F8F4305E
:104F60001A688D4B9A4204D1FFF7B0FCC7F8FC00D9
:104F700003E0FFF797FCC7F8FC00D7F8F430DB69D3
:104F8000B3F5004F40F00C81D7F8FC300022C7F891
:104F9000E830C7F8EC20D7E93A4522462B4691186D
:104FA000B9655B41FB65D7E91623214612EB010881
:104FB000294643EB01094FF000024FF000034FEA8E
:104FC000C90343EA58734FEAC802904699462346FC
:104FD00018EB0303C7F8E0302B4649EB0303C7F88F
:104FE000E430D7F8F4305B680022C7F8D830C7F84F
:104FF000DC20D7E936120B46DB183B65134642EB43
:1050000003037B65D7E91423D7E93801FBF744FE96
:1050100002460B46614BA3FB02235B091C01D7F838
:10502000FC300022C7F8D030C7F8D420D7E9348943
:1050300042464B469118B9645B41FB64D7E91223A1
:10504000414612EB010A494643EB010B4FF00002C7
:105050004FF000034FEACB0343EA5A734FEACA0208
:1050600092469B4643461AEB0303C7F8C8304B46AB
:105070004BEB0303C7F8CC30D7F8F4305B68002261
:10508000C7F8C030C7F8C420D7E930120B46DB1888
:105090003B64134642EB03037B64D7E91023D7E953
:1050A0003201FBF7F9FD02460B4611463B4BA3FBD1
:1050B00001235B09642202FB03F3CB1ADB0003F13B
:1050C0003202364BA3FB02235B095B0003F4F87347
:1050D0001C44D7F8FC300022C7F8B830C7F8BC2011
:1050E000D7E92E8942464B469118B9635B41FB6371
:1050F000D7E90E2341465118396349464B417B633A
:105100004FF000024FF00003D7E90CAB5946CB003B
:10511000514643EA51735146CA00104619460346A8
:1051200042469B18C7F8B0304B460A4642EB030391
:10513000C7F8B430D7F8F4305B680022C7F8A8305D
:10514000C7F8AC20D7E92A120B46DB18BB6213461E
:1051500042EB0303FB62D7E90A23D7E92C01FBF7F3
:105160009BFD02460B460D4BA3FB02135B0964211A
:1051700001FB03F3D31ADB003233084AA2FB0323FB
:105180005B0903F00702D7F8F4301B6822449A60E9
:1051900006E100BF00100140001401401F85EB51E3
:1051A000D7F8FC300022C7F8A030C7F8A420D7E910
:1051B000288942464B46911839625B417B62D7E9A8
:1051C000082341465418494643EB01054FF00002BD
:1051D0004FF00003EB0043EA5473E20014461D460F
:1051E0004346E318C7F898304B4645EB0303C7F82E
:1051F0009C30D7F8F4305B680022C7F89030C7F8CD
:1052000094204FF000024FF00003D7E924452946CF
:105210008B00214643EA917321468A00D7E9260193
:10522000FBF73AFD02460B46604BA3FB02235B09EA
:105230001C01D7F8FC300022C7F88830C7F88C2052
:10524000D7E9228942464B469118B9615B41FB611F
:10525000D7E9062341465118396149464B417B61E4
:105260004FF000024FF00003D7E904AB5946CB00E2
:10527000514643EA51735146CA0010461946034647
:1052800042469B18C7F880304B460A4642EB030360
:10529000C7F88430D7F8F4305B680022BB67FA6740
:1052A0004FF000024FF00003D7E91E8949468B00FA
:1052B000414643EA917341468A00D7E92001FBF752
:1052C000EBFC02460B461146384BA3FB01235B095E
:1052D000642202FB03F3CB1A1B013233334AA2FBD5
:1052E00003235B0903F0F0031C44D7F8FC300022D1
:1052F0003B677A67D7E91C8942464B469118B960EB
:105300005B41FB60D7E902234146511839604946A9
:105310004B417B604FF000024FF00003D7E900AB38
:105320005946CB00514643EA51735146CA001046D4
:105330001946034642469B18BB664B460A4642EB5B
:105340000303FB66D7F8F4305B6800223B667A669D
:105350004FF000024FF00003D7E9188949468B004F
:10536000414643EA917341468A00D7E91A01FBF7A7
:1053700093FC02460B460D4BA3FB02135B09642111
:1053800001FB03F3D31A1B013233084AA2FB0323A8
:105390005B0903F00F02D7F8F4301B6822449A60CF
:1053A00000BF07F58077BD46BDE8B08F1F85EB5184
:1053B0002DE9FF4757EC106B002F0C4619463B4672
:1053C000BBBF07F100431F4600232D230B700D9B2D
:1053D000DDF830A0914623F02008BCBF32461646C7
:1053E000B8F1460F05D0B8F1450F00D101340221C4
:1053F00000E0032103AB019302AB009347EC106B79
:105400005346224601F07CF8B8F1470F054619D102
:1054100019F0010F0ED000EB0409002200233046E2
:105420003946FBF759FB08B1CDF80C903022039BAD
:105430004B451ED3039B0E9A5B1B2846136004B09A
:10544000BDE8F087B8F1460F00EB0409E5D1037819
:10545000302B0AD10022002330463946FBF73CFBB3
:1054600018B9C4F10104CAF80040DAF800309944D0
:10547000D3E7591C03911A70D9E7F7B50029BABFD1
:1054800049422D232B2309290270437029DD0DF198
:1054900007031D460A271A46B1FBF7F607FB161449
:1054A000303402F8014C0C46632C03F1FF333146D3
:1054B000F1DC3031941E03F8011C411C2346AB4241
:1054C0000AD30DF109039B1AAC4288BF00230233B3
:1054D0000344181A03B0F0BD13F8016B01F8016F13
:1054E000EDE7302330318370C170031DF1E7000018
:1054F0002DE9F04F8DB00C46DDF8588016461F465A
:10550000054600F0E9FE036804931846FAF7B8FE72
:1055100000230A93D8F800300590073323F00703DF
:1055200003F1080294F818A0D4F800B0C8F80020DD
:10553000D3E9008929F000430793CDF81880C4E926
:105540001289DDE906019C4B4FF0FF32FBF7F6FABA
:1055500070BBDDE90601984B4FF0FF32FBF7D0FA44
:1055600030BB0022002340464946FBF7BFFA10B18A
:105570002D2384F84330914A914BBAF1470F8CBFE9
:1055800090469846032323612BF0040323604FF0D9
:105590000009009733460BAA2146284600F0D2F9AD
:1055A000013040F08D804FF0FF300DB0BDE8F08F3E
:1055B00042464B4640464946FBF7C0FA40B14B468F
:1055C000002BBCBF2D2384F843307E4A7E4BD4E7AA
:1055D00063680AF0DF0206925A1C3BD1062363601F
:1055E0004BF480620023226003930AABCDE901A350
:1055F00009AB0093616849EC108B0DF12303284639
:10560000FFF7D6FE069B0999472B804629D1C81C77
:1056100002DB6368994241DDAAF1020A5FFA8AFA65
:105620000139524604F150000991FFF726FF0A9A0A
:105630001318012A8146236102DC2268D20701D5B2
:10564000013323619DF82330002BA2D02D2384F851
:1056500043309EE7069A472AC2D1002BC0D10123CE
:10566000BDE7BAF1650FDBD9BAF1660F18D1002991
:1056700063680BDD216113B92268D00702D50133BD
:105680000B442361A1654FF00009DBE713B92268E1
:10569000D20701D50233F4E70123F2E74FF0670A9E
:1056A0000A9B994205DB23682161D807EAD54B1C88
:1056B000E7E70029D4BFC1F1020201221344E0E769
:1056C00023685A0507D42369424631462846B8471D
:1056D00001302BD167E7BAF1650F40F2DD80D4E9E4
:1056E000120100220023FBF7F7F9002833D0374AD4
:1056F000012331462846B84701303FF454AFDDE975
:105700000938434502DB2368D8070FD5DDE90423B8
:1057100031462846B84701303FF445AF4FF0000905
:1057200008F1FF3804F11A0AC84509DC23689B0711
:1057300000F10381E0680B9B9842B8BF184634E73C
:105740000123524631462846B84701303FF42BAF7B
:1057500009F10109E8E7099B002B39DC1B4A012309
:1057600031462846B84701303FF41DAFDDE909391D
:1057700059EA030302D12368D907D7D5DDE9042309
:1057800031462846B84701303FF40DAF4FF0000ACC
:1057900004F11A0B099B5B42534501DC4B4693E72E
:1057A00001235A4631462846B84701303FF4FBAE44
:1057B0000AF1010AEEE700BFFFFFEF7FD49A00086D
:1057C000D09A0008DC9A0008D89A0008E09A0008ED
:1057D000A36DDDF828A05345A8BF5346002B99467A
:1057E00036DC4FF0000B29EAE97904F11A02A36DC7
:1057F0000693A3EB09035B4531DC099B9A453ADC30
:105800002368DA0737D4099BAAEB0309069BAAEBA6
:1058100003039945A8BF9946B9F1000F33DC4FF057
:10582000000829EAE97904F11A0B099BAAEB0303A2
:10583000A3EB090343457FF779AF01235A4631466D
:105840002846B84701303FF4AEAE08F10108ECE756
:10585000424631462846B8470130C2D1A3E601236B
:10586000314628460692B84701303FF49CAE069A6E
:105870000BF1010BBBE7DDE9042331462846B847AD
:105880000130C0D18FE6069A4B4642443146284645
:10589000B8470130C3D186E6DDF828A0BAF1010F80
:1058A00001DCDB0736D50123424631462846B8479E
:1058B00001303FF478AEDDE9042331462846B8478D
:1058C00001303FF470AED4E91201002200230AF146
:1058D000FF3AFBF701F9C0B9534608F1010231461E
:1058E0002846B84701300CD15DE601235A463146BF
:1058F0002846B84701303FF456AE08F10108D045BC
:10590000F3DB4B4604F15002DFE64FF0000804F1F0
:105910001A0BF4E701234246E1E701234A463146E8
:105920002846B84701303FF43EAE08F10108E3686D
:105930000B995B1A4345F0DCFCE64FF0000804F1DC
:105940001909F4E72DE9F047164698468A680B696D
:10595000DDF820909342B8BF1346336091F843209E
:1059600007460C460AB1013333602368990642BFEB
:10597000336802333360256815F0060506D104F15B
:10598000190AE36832689B1AAB4226DC94F843306C
:105990002268003B18BF012392062BD404F1430276
:1059A00041463846C84701301ED02368226903F0BB
:1059B0000603042B02BFE5683368ED1AA3680CBF29
:1059C00025EAE57500259342C4BF9B1AED18002611
:1059D0001A34B5421AD1002008E00123524641464C
:1059E0003846C847013003D14FF0FF30BDE8F0879B
:1059F0000135C6E7E1185A1C302081F843002244E3
:105A000094F8451082F843100233C7E70123224679
:105A100041463846C8470130E6D00136D9E7000094
:105A20002DE9FF470F7E0C9E782F914680460C464D
:105A30009A4601F1430207D8622F0AD8002F00F0DE
:105A4000D180582F00F0B88004F1420684F84270EB
:105A50003AE0A7F16303152BF6D801A151F823F022
:105A6000B95A0008CD5A0008495A0008495A000896
:105A7000495A0008495A0008CD5A0008495A0008F6
:105A8000495A0008495A0008495A0008CB5B0008E7
:105A9000F75A0008855B0008495A0008495A00086F
:105AA000ED5B0008495A0008F75A0008495A0008F7
:105AB000495A00088D5B000833681A1D1B68326064
:105AC00004F1420684F8423001239CE033682068E8
:105AD000191D3160060601D51D6803E04506FBD59A
